S0170000545049492053494D504C49464945442E73726563D1
S11300000C9434000C9446000C9446000C94460066
S11300100C9446000C9446000C9446000C94460044
S11300200C9446000C9446000C9446000C94460034
S11300300C9446000C9446000C948F000C944600DB
S11300400C9446000C9446000C947F010C944600DA
S11300500C94AE010C9475010C9446000C9446006B
S11300600C9446000C94460011241FBECFEFD4E03C
S1130070DEBFCDBF21E0A0E0B1E001C01D92A630FB
S1130080B207E1F70E94BA010C94E4010C94000059
S1130090E0E8F0E08081826C8083E1E8F0E0808138
S11300A0896180838FE19EE490938700809386002A
S11300B0089584B5826484BD85B585BDEEE6F0E01F
S11300C080818360808317BC0895ECE7F0E0808131
S11300D082648083EAE7F0E080818F6E8083EBE7BF
S11300E0F0E08081808308959093C5008093C400DC
S11300F088ED8093C10086E08093C2000895E0EC0F
S1130100F0E080818823ECF78091C6000895E0EC4C
S1130110F0E0908195FFFDCF8093C60008951F9273
S11301200F920FB60F9211242F933F934F935F9327
S11301306F937F938F939F93AF93BF93CF93DF93EB
S1130140EF93FF93809104019091050188389341C6
S113015098F54A9931C0A6E8B0E0E8E8F0E028EC68
S113016042E334E62A9A8D919C9111978C5B9240DC
S1130170918380838091040190910501893E53E02D
S1130180950710F427BD0AC08D3A5DE0950710F479
S113019037BD04C08838934108F447BD80910401F9
S11301A0909105010196909305018093040188388C
S11301B0934110F44A9BD6CF4A9B7FC0E8E7F0E016
S11301C0A081B1816081718180819181208131819F
S11301D04091000150910101A69FF001A79FF00DED
S11301E0B69FF00D1124E89FB001E99F700DF89FB0
S11301F0700D1124629FC001639F900D729F900D3A
S113020011244817590708F043C0E8E7F0E09A01C1
S1130210ADECBCEC0E94D501969587959695879593
S11302209C01220F331F220F331F820F931F481785
S1130230590711F42A9A01C02A984091000150915B
S113024001014F5F5F4F5093010140930001C08152
S1130250D181608171818081918120813181C69FAA
S1130260D001C79FB00DD69FB00D1124A89FB00137
S1130270A99F700DB89F700D1124629FC001639FE8
S1130280900D729F900D11244817590708F4BFCFA1
S1130290109201011092000183E40E9487002A98C1
S11302A08091860090918700805B944090938900B0
S11302B08093880085B58E7F85BD2A9810920501AC
S11302C010920401FF91EF91DF91CF91BF91AF9113
S11302D09F918F917F916F915F914F913F912F915A
S11302E00F900FBE0F901F9018951F920F920FB68C
S11302F00F9211240F900FBE0F901F9018951F920C
S11303000F920FB60F9211242F933F934F935F9345
S11303106F937F938F939F93AF93BF93EF93FF93C9
S11303200E947F0090E09093030180930201813446
S1130330910519F485B5816085BDFF91EF91BF9159
S1130340AF919F918F917F916F915F914F913F9169
S11303502F910F900FBE0F901F9018951F920F9220
S11303600FB60F9211241092C6000F900FBE0F907B
S11303701F901895219A229A569A5298549A0E943C
S113038048000E9459000E9465008CE090E00E94A1
S113039074008091860090918700805B94409093D4
S11303A08900809388007894FFCFA29FB001B39F07
S11303B0C001A39F700D811D1124911DB29F700D6A
S10F03C0811D1124911D0895F894FFCFB5
S9030000FC
