S0140000545049492041544D454741382E73726563D3
S113000012C021C020C01FC01EC01DC01CC01BC008
S11300101AC019C018C024C016C015C014C013C01B
S113002012C011C010C011241FBECFE5D4E0DEBF42
S1130030CDBF20E0A0E6B0E001C01D92A436B20717
S1130040E1F771D085C0DCCF90BD89B95F9A88E9AA
S11300508AB98EE880BD08955F9BFECF8CB1089568
S11300601F920F920FB60F9211242F933F934F9329
S11300705F936F937F938F939F93AF93BF93EF930C
S1130080FF93EADF90E09093610080936000109208
S1130090630010926200809160009091610081344D
S11300A0910541F4C09A86B597B5845398409BBD99
S11300B08ABD07C0C09886B597B5805B94409BBD48
S11300C08ABD8091620090916300019690936300D1
S11300D08093620080319742F0F210926300109294
S11300E06200FF91EF91BF91AF919F918F917F91AA
S11300F06F915F914F913F912F910F900FBE0F9091
S11301001F9018958FB5826C8FBD8EB589618EBD99
S11301108FE19EE497BD86BD089583B783BF89B7F9
S1130120816089BF0895B89AB99ABA9A8A988CE07E
S113013090E08ADFE7DF86B597B5805B94409BBD8E
S11301408ABDEBDF789483E4829BFECF8CB9FCCF2D
S1070150F894FFCF4D
S9030000FC
