:100000000C9434000C9446000C9446000C9446006A
:100010000C9446000C9446000C9446000C94460048
:100020000C9446000C9446000C9446000C94460038
:100030000C9446000C9446000C948F000C944600DF
:100040000C9446000C9446000C94ED000C94460071
:100050000C941C010C94E3000C9446000C94460094
:100060000C9446000C94460011241FBECFEFD4E040
:10007000DEBFCDBF21E0A0E0B1E001C01D92A630FF
:10008000B207E1F70E9428010C9482010C94000051
:10009000E0E8F0E08081826C8083E1E8F0E080813C
:1000A000896180838FE19EE490938700809386002E
:1000B000089584B5826484BD85B585BDEEE6F0E023
:1000C00080818360808317BC0895ECE7F0E0808135
:1000D00082648083EAE7F0E080818F6E8083EBE7C3
:1000E000F0E08081808308959093C5008093C400E0
:1000F00088ED8093C10086E08093C2000895E0EC13
:10010000F0E080818823ECF78091C6000895E0EC50
:10011000F0E0908195FFFDCF8093C60008951F9277
:100120000F920FB60F9211242F933F934F938F93FB
:100130009F93AF93BF93EF93FF93809104019091AE
:1001400005018838934160F54A992AC0A6E8B0E0D5
:10015000E8E8F0E028EC32E32A9A8D919C9111971F
:100160008C5B924091838083809104019091050182
:10017000853C49E0940710F427BD04C088389341BA
:1001800008F437BD80910401909105010196909388
:100190000501809304018838934110F44A9BDCCF19
:1001A0002A981092050110920401FF91EF91BF91DE
:1001B000AF919F918F914F913F912F910F900FBED3
:1001C0000F901F9018951F920F920FB60F92112447
:1001D0000F900FBE0F901F9018951F920F920FB6A1
:1001E0000F9211242F933F934F935F936F937F93BD
:1001F0008F939F93AF93BF93EF93FF930E947F00E2
:1002000090E090930301809302018134910519F4E9
:1002100085B5816085BDFF91EF91BF91AF919F91B1
:100220008F917F916F915F914F913F912F910F909F
:100230000FBE0F901F9018951F920F920FB60F923E
:1002400011241092C6000F900FBE0F901F901895AA
:10025000219A229A569A5298549A0E9448000E94D3
:1002600059000E9465008CE090E00E94740080912B
:10027000860090918700805B9440909389008093E2
:1002800088007894C8E7D0E00F2EF4E1DF2EF02D3F
:1002900006E810E00F2EF8E8EF2EF12CF02D4A9B27
:1002A000FECF488159818091000190910101D49E37
:1002B0009001D59E300D11248217930778F4029691
:1002C000909301018093000148815981D49E90014F
:1002D000D59E300D11248217930788F310920101E7
:1002E0001092000183E40E9487002A98F80180811F
:1002F0009181805B9440F7019183808385B58E7FE7
:0803000085BDCDCFF894FFCFBD
:00000001FF
