:100000000C9434000C9446000C9446000C9446006A
:100010000C9446000C9446000C9446000C94460048
:100020000C9446000C9446000C9446000C94460038
:100030000C9446000C9446000C9474000C944600FA
:100040000C9446000C9446000C9446000C94460018
:100050000C9446000C94C8000C9446000C94460086
:100060000C9446000C94460011241FBECFEFD8E03C
:10007000DEBFCDBF21E0A0E0B1E001C01D92A23003
:10008000B207E1F70E94F4000C943C010C940000CC
:10009000E0E8F0E08081826C8083E1E8F0E080813C
:1000A000896180838FE19EE490938700809386002E
:1000B000089584B5826484BD85B585BDEEE6F0E023
:1000C00080818360808317BC0895ECE7F0E0808135
:1000D00082648083EAE7F0E080818F6E8083EBE7C3
:1000E000F0E08081808308951F920F920FB60F92E7
:1000F00011242F933F934F938F939F93AF93BF936D
:10010000EF93FF9380910001909101018838934112
:1001100064F54A9B2AC0A6E8B0E0E8E8F0E028ECE5
:1001200032E38D919C9111978C5B924091838083F7
:100130005C9A8091000190910101853C49E094070F
:1001400014F427BD04C0883893410CF437BD809166
:1001500000019091010101969093010180930001AB
:100160008838934114F44A99DCCF5C9810920101CD
:1001700010920001FF91EF91BF91AF919F918F91EC
:100180004F913F912F910F900FBE0F901F90189598
:100190001F920F920FB60F9211242F938F939F935C
:1001A00080917800909179008F3F910511F008F0CF
:1001B0005C9A80917800909179008115924008F4C2
:1001C0005C989F918F912F910F900FBE0F901F9071
:1001D00018959093C5008093C40088E18093C10076
:1001E0008EE08093C2000895219A569A52985398AF
:1001F000549A0E9448000E9459000E9465008CE0B9
:1002000090E00E94E900A6E8B0E08D919C911197E2
:10021000805B9440E8E8F0E0918380838D919C912D
:10022000119780529340918380838D919C91119777
:1002300084539840918380837894C6ECD0E022E484
:100240004A9B04C085B5816085BDFACF4B9B09C030
:100250008D919C911197845398409183808328833A
:10026000EFCF8D919C911197805B94409183808317
:0C02700085B58E7F85BDE4CFF894FFCFEC
:00000001FF
